:020000040000fa
:080000000002040000000000f2
:020000040000fa
:100008002e0300002e0300002e0300002e03000024
:100018002e0300002e0300002e0300002e03000014
:100028002e0300002e0300002e0300002e03000004
:100038002e0300002e0300002e0300002e030000f4
:100048002e0300002e0300002e0300002e030000e4
:100058002e0300002e0300002e0300002e030000d4
:100068002e0300002e0300002e0300009a02000059
:100078002e0300002e0300002e0300002e030000b4
:100088002e0300002e0300002e0300002e030000a4
:100098002e0300002e030000502400002e03000051
:1000a8002e0300002e0300002e0300002e03000084
:1000b8002e0300002e0300002e0300002e03000074
:1000c8002e0300002e0300002e0300002e03000064
:1000d8002e0300002e0300002e0300002e03000054
:1000e8002e0300002e0300002e0300002e03000044
:1000f8002e0300002e0300002e0300002e03000034
:100108002e0300002e0300002e0300002e03000023
:100118002e0300002e0300002e0300002e03000013
:100128002e0300002e0300002e0300002e03000003
:100138002e0300002e0300002e0300002e030000f3
:100148002e0300002e0300002e0300002e030000e3
:100158002e0300002e0300002e0300002e030000d3
:100168002e0300002e0300002e0300002e030000c3
:100178002e0300002e0300002e0300002e030000b3
:100188002e0300002e0300002e0300002e030000a3
:100198002e0300002e0300002e0300002e03000093
:1001a8002e0300002e0300002e0300002e03000083
:1001b8002e0300002e0300002e0300002e03000073
:1001c8002e0300002e0300002e0300002e03000063
:1001d8002e0300002e0300002e0300002e03000053
:1001e8002e0300002e0300002e0300002e03000043
:0801f8002e0300002e0300009d
:020000040000fa
:100208002e0300002e0300002e0300002e03000022
:100218002e0300002e0300002e0300002e03000012
:100228002e0300002e0300002e0300002e03000002
:100238002e0300002e0300002e0300002e030000f2
:100248002e0300002e0300002e0300002e030000e2
:100258002e0300002e0300002e0300002e030000d2
:100268002e0300002e0300002e0300009a02000057
:100278002e0300002e0300002e0300002e030000b2
:100288002e0300002e0300002e0300002e030000a2
:100298002e0300002e030000502400002e0300004f
:1002a8002e0300002e0300002e0300002e03000082
:1002b8002e0300002e0300002e0300002e03000072
:1002c8002e0300002e0300002e0300002e03000062
:1002d8002e0300002e0300002e0300002e03000052
:1002e8002e0300002e0300002e0300002e03000042
:1002f8002e0300002e0300002e0300002e03000032
:100308002e0300002e0300002e0300002e03000021
:100318002e0300002e0300002e0300002e03000011
:100328002e0300002e0300002e0300002e03000001
:100338002e0300002e0300002e0300002e030000f1
:100348002e0300002e0300002e0300002e030000e1
:100358002e0300002e0300002e0300002e030000d1
:100368002e0300002e0300002e0300002e030000c1
:100378002e0300002e0300002e0300002e030000b1
:100388002e0300002e0300002e0300002e030000a1
:100398002e0300002e0300002e0300002e03000091
:1003a8002e0300002e0300002e0300002e03000081
:1003b8002e0300002e0300002e0300002e03000071
:1003c8002e0300002e0300002e0300002e03000061
:1003d8002e0300002e0300002e0300002e03000051
:1003e8002e0300002e0300002e0300002e03000041
:0803f8002e0300002e0300009b
:020000040000fa
:100400004fed20000e7f22000e018800000000004a
:10041000000020000000e000020032000001200087
:10042000200288000c000700605722000100200015
:1004300011000700000020000000e0000200320070
:100440000000020000000000ce1f020000000000bb
:100450000040da000000fe004440a90040272000d0
:100460000000e0000300320000002000a00188002e
:100470004440a80000000600910188008000780038
:100480000000eb0015003700e280400032a0b4000d
:100490009101ba00e280400032a0b4009102ba009b
:1004a000e280400032a0b4000002eb00472bde00e7
:1004b000f507b200602ce10004003a000059eb009f
:1004c0008301e900fdff3e00040037006128e100e0
:1004d000010032000082eb00040007001101ba00a5
:1004e0000200e000e8ff3a00000006003159ba00bf
:1004f0008301e9000c0032002159ba008301e900b0
:10050000080032000400e00003003a00e2804000ee
:1005100032a0b400f5ff370011d9ba008301e90019
:10052000faff3a008100e800e180400032a0b40008
:1005300000000600841f78000000fa0054168000b6
:1005400067026200647688008660a9000080fa0075
:100550004f027800004006000200fa00000f780009
:100560000b00370000000000000000000000000049
:10057000000000000000000000000000000000007b
:10058000000000000000000000000000000000006b
:100590001e02780004f0a7000402ea000402ea0048
:1005a0004f22de00044278001e0fe900e04f5200a7
:1005b000ecff3a000080fa00000006000200fa009a
:1005c000000f780002003700803e2000e2ff0700a5
:1005d0001e02780004f0a7000402ea000402ea0008
:1005e0004f22de00044278001e0fe900e04f520067
:1005f000f5ff3a000080fa00000006000000fa0053
:10060000441680007400b30044168800641980000a
:10061000c401b300641988000503800004072000aa
:1006200005027200040388004503800004072000cf
:100630000502720044038800a0002000dfff0700cd
:100640005416800067026200647688008660a90004
:100650009660a8000080fa00000006000040da0062
:100660000000fe003200f800023b88009101880083
:100670000008bb000500fc0051052000313b88004c
:10068000a10a2000313b880061e7a80000000000bb
:10069000000000003200f900000006000400a10084
:1006a000010037000400a0003200f800910188002a
:1006b00011002400013b8800f10f20003208bb002c
:1006c0000400a700b20078000198bb008301e90094
:1006d000faff3a00680151000400a70068015100c8
:1006e000680050001208bb00e2ff3700f30f200043
:1006f0003200f8009101880031002400013b88009d
:100700000208bb000388bb00daff37003200f800a4
:10071000003b8800d7ff37003200f80091018800c5
:100720008002780062004000e08048003549ba004d
:100730003204e0000410a700100032008301e90039
:100740000e0032002549ba003204e0000410a70070
:100750000a0032008301e900080032000408a30007
:10076000eeff320015c9ba003204e0000410a70001
:10077000020032008301e900e8ff3a003200f9008c
:100780000000060015c0b3000100200024ed200089
:100790007076880081768800054a7800000006009f
:1007a00024ed20008042eb0094cf120002003a00ba
:1007b00010002000f3ff0700707680008176800033
:1007c000d2e62400631c24000900070094032300e0
:1007d000050020000002420081824a0074768800f1
:1007e000857688000500780000f0a1000000060072
:1007f000020ab900001bb9000200b80081004200e3
:08080000810043000000060026
:020000040000fa
:1008080049460000004700004f5400004f00000018
:10081800474f0000535500004200000052450000b9
:1008280054550000524e0000004600004f52000090
:10083800005400004f0000005354000045500000d1
:10084800004e0000455800005400000050520000bf
:10085800494e000054000000494e00005055000069
:10086800540000004c4500004400000052450000c0
:100878004d0000004c450000540000005354000097
:100888004f500000004f00004e0000004f4600008f
:10089800460000003b0000002d0000002b00000077
:1008a8002a0000002f0000003e3d0000003c000030
:1008b8003e0000003e0000003d0000003c3d0000fe
:1008c800003c00000028000000290000002c000067
:1008d8000023000000400000005200004e440000c9
:1008e8000041000042530000005300005700000080
:1008f800534900005a450000004c000049530000cd
:1009080054000000525500004e0000004e45000003
:100918005700000053410000564500000042000007
:100928004f4f0000540000004c4f000041440000ad
:10093800004f00004b00000044650000766900008d
:10094800736900006f6e00002062000079200000cb
:100958007a650000726f0000004f000076650000a5
:10096800726600006c6f000077000000537500008d
:100978006273000063720000697000007420000058
:100988006f750000742000006f6600002072000080
:10099800616e00006765000000490000636f000099
:1009a800646500002062000075660000666500004e
:1009b80072200000667500006c6c0000004c00009e
:1009c8006973000074200000667500006c6c0000fc
:1009d800004700004f5300005542000020740000fb
:1009e8006f6f0000206d0000616e0000792000002c
:1009f8006e6500007374000065640000005200001a
:100a080045540000555200004e2000007374000049
:100a1800616300006b200000756e000064650000d3
:100a2800726600006c6f000077000000464f0000ff
:100a380052200000746f00006f2000006d610000fc
:100a48006e790000206e0000657300007465000078
:100a5800640000004e450000585400002077000054
:100a680069740000686f000075740000204600007b
:100a78004f520000004e000045580000542000006e
:100a880077690000746800006f750000742000002a
:100a9800636f0000756e000074650000720000004e
:100aa8004e45000058540000206d00006973000096
:100ab8006d6100007463000068200000464f00006c
:100ac80052000000464f00005220000077690000e5
:100ad800746800006f7500007420000076610000e3
:100ae80072690000616200006c6500000046000049
:100af8004f5200002077000069740000686f000002
:100b080075740000205400004f0000004c450000a0
:100b18005420000077690000746800006f750000b9
:100b280074200000766100007269000061620000b4
:100b38006c6500000049000046200000776900004d
:100b4800746800006f75000074200000636f000077
:100b58006e64000069740000696f00006e00000098
:100b6800556e000064650000666900006e6500004f
:100b7800642000006c6900006e650000206e0000b3
:100b8800756d0000626500007200000027280000f3
:100b9800272000006f72000020270000292700008e
:100ba800206500007870000065630000746500002f
:100bb80064000000273d0000272000006578000041
:100bc800706500006374000065640000004900005f
:100bd8006c6c000065670000616c00002063000019
:100be8006f6d00006d6100006e640000005300002e
:100bf800796e0000746100007820000065720000c2
:100c0800726f000072000000496e000074650000f9
:100c1800726e0000616c00002065000072720000b6
:100c28006f72000000410000626f000072740000e3
:100c380020620000792000005b450000534300005b
:100c48005d00000045520000522000004c490000a1
:100c58004e4500003a000000594f000055200000a2
:100c680054590000504500003a200000005400008c
:100c78004f5900004f530000484900004b490000fd
:100c880020540000494e0000592000004241000055
:100c9800534900004300000050490000433200005f
:100ca800344600000020000045440000495400007c
:100cb800494f00004e000000506f000077650000ab
:100cc800722000006f6e000020720000756e000038
:100cd800005900004f5500002054000059500000f2
:080ce800453a00000000000085
:020000040000fa
:100cf0000000fa00d0c0b300dd0e0700a0c0b300b2
:100d0000db0e07000080fa00000006000200fa0077
:100d1000000f7800a2fe0700000278009e02780013
:100d2000110009000502d800010278000402e80061
:100d3000040078000080fa00000006000200fa00bb
:100d4000004f7800a4c7b3009e42780084cf5200c1
:100d500008003c0004c6b3009e42780084cf5200d5
:100d6000040034009e42780004ceb30004c2420066
:100d7000010037001e427800044078000080fa002d
:100d8000000006000200fa00004f78001e427800c2
:100d9000ff4f520006003400f4c7b3009e427800b3
:100da00084cf5200020032001400200001003700fe
:100db0000002eb0004427800044078000080fa0052
:100dc000000006000200fa00004f780004c2b300e1
:100dd0009e42780084cf5200060032001e42780006
:100de000ed4f520005003c001e427800e84f5200d3
:100df0000200340014002000010037000002eb0064
:100e000004427800044078000080fa0000000600e8
:100e10000200fa00004f780094c3b3009e427800ad
:100e200084cf520006003c00f4c2b3009e4278001a
:100e300084cf52000200340014002000010037006b
:100e40000002eb0004427800044078000080fa00c1
:100e5000000006000200fa00004f7800a4c7b300ab
:100e60009e42780084cf520004003c0004c6b300c8
:100e70009e42780084cf520008003c00a4c5b30015
:100e80009e42780084cf520006003c0004c4b300a8
:100e90009e42780084cf52000200340014002000eb
:100ea000010037000002eb000442780004407800a3
:100eb0000080fa00000006000200fa00000f78002f
:100ec000050037001e027800144278001e0fe8006b
:100ed00004407800660e07001e0278001442780075
:100ee000e04f5200f7ff3a000080fa0000000600d1
:100ef0000200fa000042eb00144798002c00370073
:100f00001e427800e94f520002003a0004c2b300ca
:100f1000044f78001e427800e84f5200040032006f
:100f2000f4c7b3009e42780084cf52000d003a000f
:100f30001e429000e04f52000a0032001e42900014
:100f40000442e9001447980080c0b300480e07002f
:100f500000c2b300460e070080c0b300440e070075
:100f6000130037001e40780086ff0700004278001b
:100f7000e04f52000e0032009e429000e4c4b300e5
:100f800084cf52000a003e001e4290008482fb0083
:100f900004802000048242001e4a78001e42900015
:100fa0000442e800144798001e407800300e070005
:100fb0006a0e070000427800044f78001e42780055
:100fc000ed4f5200ceff3a0049ff07001e4290004d
:100fd0008482fb0004802000048242008042eb00f7
:100fe000054a78001e429000e04f52001600320081
:100ff0001e4290000442e900144798001e429000ef
:101000008482fb00048020000482420014427800a5
:10101000044078006bff070000427800e04f520068
:10102000f3ff3a001e4290000442e8001447980083
:101030001e4290008482fb00048020000482420053
:101040008042eb00054a78000080fa0000000600ac
:101050000600fa0010079800210798001e02900071
:10106000e00f520006003d0014c0b3001447980082
:101070001e0290000402ea001407980002003700e4
:101080000042eb00144798000042eb0084407800d7
:10109000608020000148780064c0b300044f7800ed
:1010a0001e4fe9001e4278000483fb009e02900060
:1010b000a4002000110009008402d8000102780079
:1010c000044278000443b000844278000480200089
:1010d00004024300054a78009e029000a40020000c
:1010e000110009008402d80000027800140798005b
:1010f0001e029000e00f5200e9ff3c001e429000eb
:10110000e04f52000e0032001e4fe9001e427800f0
:101110008482fb000480200004824200d5c2b30018
:10112000054a78000700370000c2b300d00d070061
:101130002e0290000402e900240798000100370005
:10114000000000009e4278000582fb00e6021200cb
:101150002e029000848f5200f3ff35001e4378006a
:101160008682fb0004802000048242000400780094
:1011700051ff07000080fa00000006000800fa0096
:101180000042eb00244798002e0037004e429000aa
:10119000e84f52000d003a002e429000e04f5200fe
:1011a0000a0032002e4290000442e90024479800d1
:1011b00080c0b300ae0d070000c2b300ac0d070045
:1011c00080c0b300aa0d07001e0037002e42900019
:1011d000e04f520008003a00ce429000b4c2b30083
:1011e00084cf52000c003200ce429000d4c2b30033
:1011f00084cf5200080032002e429000e54f52008a
:1012000010003e004e40900001ff070000427800b1
:10121000e04f52000b0032002e4290008482fb000f
:101220000480200004824200ce429000054a7800eb
:101230002e4290000442e800244798004e4090005f
:101240008b0d0700c50d0700004278004447980049
:101250004e429000ed4f5200ccff3a00a4fe070032
:101260002e4290008482fb00048020000482420011
:101270008042eb00054a7800048020001442780088
:101280000402fb00b5022000850f52000800320066
:10129000d5022000850f52000a003a0014c0b300a6
:1012a0003447980014c0b300244798000a00370060
:1012b0000042eb003447980014c0b3002447980064
:1012c000050037000042eb00344798000042eb0075
:1012d00024479800000000000002eb00040f780093
:1012e0000002eb0034079800190037001e02780056
:1012f0006a22b900840278002e4290000483fb0029
:101300000480200004024300144278000402fb0021
:10131000048242000403b100340798002e4290007a
:101320000442e800244798003e0290009e027800a4
:10133000848f52000400340024c0b300844278003b
:1013400056e02000054b78003e039000060f780021
:101350002e4290008482fb00048020000482420020
:1013600014427800e04f5200e0ff3a003e42900005
:10137000e04f5200020032001e02ea000100370076
:101380001e027800040078000080fa0000000600c9
:101390000200fa00000f780044de200014427800ba
:1013a000e54f52000c003e0044de2000144278005d
:1013b0008482fb000583420085dd20008502430016
:1013c0009e0a78000442e8000443780045de2000cd
:1013d000864a78000400370064c0b30004437800f4
:1013e00055e02000864a78000080fa0000000600e0
:1013f0000000fa0044de200014427800e04f520062
:101400000e00320044de2000144278000442e9005d
:101410000443780045de2000864a780044de200040
:10142000144278000482fb008402420084dd200024
:1014300004824200140278000500370074c0b30033
:101440000443780055e02000864a78000002eb0053
:10145000040078000080fa00000006000200fa0094
:10146000000f780044e0200014427800ee4f520054
:101470000c003e0044e02000144278008482fb000f
:101480000583420065de2000850243009e0a780045
:101490000442e8000443780045e02000864a7800d2
:1014a0000400370084c0b3000443780055e02000f6
:1014b000864a78000080fa00000006000000fa006a
:1014c00044e0200014427800e04f52000e00320049
:1014d00044e02000144278000442e900044378000c
:1014e00045e02000864a780044e02000144278005d
:1014f0000482fb008402420064de20000482420079
:10150000140278000500370094c0b300044378004b
:1015100055e02000864a78000002eb0004007800c5
:101520000080fa00000006000200fa00000f7800b8
:101530001e02780014427800e04f520002003a0088
:10154000f4ff2700080037001e02e800144278006c
:101550008482fb001e82e800144278000482fb00b3
:101560004822dd0004824200040078000080fa0076
:10157000000006000200fa00b46e800014427800f9
:10158000fb4f52000600320014c1b3000443780040
:1015900055e02000864a78000002eb001a00370070
:1015a000b46e80000402e800b46e88008504070071
:1015b00000027800040f780054e020001442780004
:1015c000e04f5200020032000002eb000e00370034
:1015d000b46e800014427800fc4f520006003200c6
:1015e00014c1b3000443780055e02000864a780017
:1015f0000002eb0004003700b46e80000402e80033
:10160000b46e88001e027800040078000080fa00a2
:10161000000006000400fa0010079800449d200016
:10162000040f78000a0037001e007800beff070094
:10163000000278009e029000850f520009003d00d4
:101640001e027800144278000482fb001e0f420044
:101650001e02780014427800e04f5200f2ff3a0078
:1016600001003700000000001e027800040078002e
:101670000080fa00000006000e00fa00881f7800c3
:1016800004802000440798000042eb0014479800b3
:10169000a00137004e0290000402e80044079800c1
:1016a00001003700000000004e0290001442780054
:1016b00004407800c3fd070000427800e04f52006c
:1016c000f4ff3a000042eb00044f78003700370087
:1016d0009e4278000582fb008402420064e0200004
:1016e0000482420014037800260798004e029000fe
:1016f00034079800060037002e0290000402e8002c
:10170000240798003e0290000402e8003407980085
:101710002e02900014427800e04f5200090032007f
:101720002e029000144478003e029000144278008b
:101730000440780081fd070000427800844f540087
:10174000edff32002e02900014427800e04f52006c
:1017500015003a009e429000e4c4b30084cf5200ca
:101760000600360044c0b3000443780055e0200072
:10177000864a78000042eb00740137001e42900058
:101780008482fb0004852000048242001e4a780007
:101790001e4290000442e800144798003e02900068
:1017a00044079800050037001e4fe80094c2b300bc
:1017b0009e42780084cf5200c5ff36009e427800da
:1017c0000582fb00eb0f5200050032004c00370091
:1017d0004e0290000402e800440798000100370020
:1017e000000000004e02900014427800044078008f
:1017f00074fd070000427800e04f5200f4ff3a0009
:101800004e039000360798000042eb00044f78002a
:10181000010037001e4fe8003e029000144278009d
:101820000482fb000402ea004f22de00044278003a
:10183000be0290008502e80035079800e04f520094
:10184000f4ff3a001e4290008482fb001e437800a1
:101850000682fb00e604200004025300848f52003d
:101860000600350044c0b3000443780055e0200072
:10187000864a78000042eb00340137001e42900097
:101880008482fb0004852000048242001e4a780006
:101890001e4290000442e800144798000e003700f2
:1018a0001e4290000483fb004e0290001442780018
:1018b000844278000485200004024300054a780031
:1018c0001e4290000442e800144798004e02900027
:1018d0000402e800440798009e4278000582fb005d
:1018e0000402ea004f22de00044278001e4fe900a5
:1018f000e04f5200eaff3a001e4290001301370009
:101900002e02900014427800e04f52000101320094
:101910004e039000360798003e0290001442780073
:10192000044078003afd070000427800e04f520082
:101930004e0032000002eb00140798000002eb009a
:10194000540798001e0290006a22b90084027800b1
:101950003e029000144278000402fb000482420020
:101960000403b100540798003e0290000402e8000e
:10197000340798009e0290005e029000848f52000f
:101980000600340024c0b3000443780055e0200072
:10199000864a78000042eb00ec0037005e029000bf
:1019a000140798003e02900014427800044078002a
:1019b00017fd070000427800e04f5200e1ff3a00b7
:1019c0009e429000c4c4b30084cf5200060036008b
:1019d00044c0b3000443780055e02000864a7800f4
:1019e0000042eb00d90037003e0290004407980007
:1019f0001e4290008482fb00048520000482420085
:101a0000a5c2b300054a78001e4290000442e800d7
:101a1000144798001e4290000483fb001e029000b1
:101a2000844278000485200004024300054a7800bf
:101a30001e4290000442e800144798001e429000a5
:101a40000483fb001e02900048a2de00844278005e
:101a50000485200004024300054a78001e429000dd
:101a60000442e80014479800aa0037003e029000a4
:101a70001442780004407800f6fc07000042780029
:101a8000e04f5200390032009e429000d4c4b300af
:101a900084cf52000600360044c0b30004437800ef
:101aa00055e02000864a78000042eb00a70037008e
:101ab0001e429000e14f52000f0036001e4290007f
:101ac0000482fb008482e900048520000482420035
:101ad00094427800b4c2b30084cf520006003a00aa
:101ae00044c1b3000443780055e02000864a7800e2
:101af0000042eb00950037001e4290008482fb00fc
:101b00000485200004824200b5c2b300054a780073
:101b10001e4290000442e800144798001e429000c4
:101b20000484fb003e0290001442780004407800d8
:101b300082fc07000042780084427800f4cbb300b6
:101b400084c242000485200004024400054a780053
:101b50001e4290000442e800144798004e02900094
:101b60000402e800440798006a0037004e02900023
:101b70009442780024c2b30084cf520005003200a2
:101b80004e0290009442780074c2b30084cf520099
:101b90005a003a004e02900094427800454f980057
:101ba0004e0290000402e800440798004e039000a3
:101bb000360798000042eb00044f7800040037001d
:101bc0003e0290000402e800340798001e4fe8002f
:101bd0003e029000944278004e4a900084cf52001a
:101be000070032003e029000144278000440780062
:101bf00064fc070000427800e04f5200f0ff3a001a
:101c00001e4290008482fb001e4378000682fb0087
:101c1000f604200004025300848f520006003500b1
:101c200044c0b3000443780055e02000864a7800a1
:101c30000042eb00450037001e4290008482fb000a
:101c40000485200004824200c5c2b300054a780022
:101c50001e4290000442e800144798001e42900083
:101c60008482fb0004852000048242001e4a780022
:101c70001e4290000442e800144798000e0037000e
:101c80001e4290000483fb004e0290001442780034
:101c9000844278000485200004024300054a78004d
:101ca0001e4290000442e800144798004e02900043
:101cb0000402e800440798009e4278000582fb0079
:101cc0000402ea004f22de00044278001e4fe900c1
:101cd000e04f5200eaff3a004e0290009442780032
:101ce0004e4a900084cf52000a003a004e02900003
:101cf0000402e800440798000600370044c1b3001e
:101d00008442780056e02000054b78000042eb004a
:101d10000e0037004e02900014427800e04f52004f
:101d200060fe3a001e4290008482fb000485200081
:101d300004824200d5c2b300054a78001e429000da
:101d40000442e800144798001e42900004407800c6
:101d50004f0478000080fa00000006000600fa0038
:101d600020079800cc0037002e02900094427800a3
:101d700094c2b30084cf520038003e002e0290007f
:101d8000144278000482fb008402420064e02000d8
:101d900004824200140278000400780046fc070028
:101da0002e02900014427800ec4f520004003e00d6
:101db0002e02900014427800e34f520004003a00d3
:101dc0002e02900014427800f04f520002003a00b8
:101dd00000c2b300a60a07002e0290001442780049
:101de000eb4f520019003a002e0290000402e80066
:101df000240798002e029000144f78002e029000c5
:101e00000402e80024079800070037002e02900023
:101e100014427800ae0290008502e8002507980081
:101e200004407800920a07009e4278000582fb0079
:101e30000402ea004f22de00044278001e4fe9004f
:101e4000e04f5200f1ff3a00980037002e02900058
:101e50000402e800240798008f0037002e0290004b
:101e600094427800a4c2b30084cf52001c003a0010
:101e70002e009000acfd0700000278008000eb000f
:101e80000400780072fc07002e02900063024200fa
:101e9000240798002e02900014427800f04f520060
:101ea000040036002e02900014427800fc4f5200cd
:101eb000790036002e02900014427800fd4f520047
:101ec000750032002e02900014427800f04f52004c
:101ed0007100320000c2b300650a07006e003700cf
:101ee0002e02900094427800b4c2b30084cf520016
:101ef0001e003a002e0290000402e8002407980019
:101f00002e029000144278001444b000ae029000fb
:101f10008502e8002507980004407800540a07006d
:101f20002e02900014427800f04f52000400360058
:101f30002e02900014427800fc4f520056003600ea
:101f40002e02900014427800fd4f520052003200e1
:101f50002e02900014427800f04f52004e003200e2
:101f600000c2b300420a07004b0037002e02900067
:101f700094427800c4c2b30084cf520041003a00ba
:101f80002e0290000402e800240798000002eb00f3
:101f9000140798002e029000144f78000b003700b1
:101fa0001e4378000682fb000402e800ae029000a7
:101fb000048242009442780024c2b30084cf5200cd
:101fc00002003a0014002000140798009e42780096
:101fd0000582fb000402ea004f22de000442780082
:101fe0001e4fe900e04f5200edff3a001e02900044
:101ff000e00f52000300320070c2b3001c0a070059
:102000000200370020c2b300190a07002e02900018
:10201000144f78002e0290000402e8002407980074
:10202000070037002e02900014427800ae029000a4
:102030008502e80025079800044078000c0a070094
:102040001e4378000682fb000402ea004f22de00f5
:10205000044278001e4fe900e04f5200f1ff3a00c1
:102060001e029000e00f52000300320070c2b30065
:10207000ff0907000800370020c2b300fc09070071
:102080000500370054c1b3000443780055e0200038
:10209000864a7800050037002e02900094427800ae
:1020a000d4c2b30084cf52002fff3a000080fa0060
:1020b000000006000400fa00449d2000040f780090
:1020c000040037001e027800144278000482fb00ee
:1020d0001e0f42001e02780014427800e04f5200aa
:1020e000f8ff3a001e0278008402ea0034dd200086
:1020f0000402e90004824200140798001e029000c6
:10210000040078000080fa00000006000600fa00d3
:10211000881f780004852000b46e8800b46e8000ab
:102120000400780000fd0700000278000400780039
:1021300038fd070000027800a46e8800a46e8000bd
:10214000140798001e009000f7fc070000047800b8
:10215000b46e800004007800f3fc070000027800f1
:10216000840f540033003a00d2ff070000027800c9
:102170009e029000954278008582fb008502520005
:10218000b46e8000144278000482fb00848f5200f9
:1021900005003d0054c0b3000443780055e0200022
:1021a000864a7800750037001e02900014427800bd
:1021b0000482fb009e0290000482420024079800e3
:1021c000140037002e029000944278001e02900006
:1021d000054a78001e0290000402e80014079800e7
:1021e0002e0290000402e800240798000100370046
:1021f000000000009e4278000582fb000402ea0015
:102200004f22de00044278001e4fe900e04f5200ea
:10221000ecff3a002e029000144f78001e42780026
:10222000e04f5200f2ff3a001e0290008042eb00a5
:10223000054a7800b46e800014427800e44f5200e2
:1022400008003a004d0037001e029000144278004a
:102250000482fb009e029000048242001407980052
:1022600001003700000000001e02900014427800b8
:10227000e04f5200f4ff3a00b46e80001442780040
:102280008482fb001e0290000403ea0034dd20007b
:102290000402e90004024300848f52000500340068
:1022a00054c0b3008442780056e02000054b78000b
:1022b000320037001e02900084427800a46e800035
:1022c0000442780004c25200044fe800b46e80005b
:1022d000144278000482fb009e02900004824200b7
:1022e000240798000a0037001e02900094427800ec
:1022f0002e029000054a78002e0290000402e900a8
:10230000240798001e0290000402e90014079800b8
:102310001e4378000682fb000402ea004f22de0022
:10232000044278001e4fe900e04f5200eeff3a00f1
:10233000b46e8000144f780008003700a56e80004e
:10234000b46e800014437800864a78008502e80065
:10235000a56e88000402e800b46e88009e427800f2
:102360000582fb000402ea004f22de0004427800ee
:102370001e4fe900e04f5200f0ff3a004f04780092
:102380000080fa00000006000200fa0079fc070055
:1023900000027800040f780054e020001442780016
:1023a000e04f5200020032000002eb00050037004f
:1023b0001e027800e00f520001003d001e0fea00ef
:1023c0001e027800040078000080fa000000060079
:1023d0000200fa0067fc070000027800040f780092
:1023e00054e0200014427800e04f52000200320016
:1023f0000002eb000f003700f40720009e02780077
:10240000848f520006003c001e02780084024200c5
:10241000448d200004824200140278000500370039
:1024200034c0b3000443780055e02000864a7800a9
:102430000002eb00040078000080fa0000000600b3
:102440000200fa00b46e8000144278000482fb009f
:102450006123b900f4fe2f00f5ff2f0006024200b1
:1024600087824a00a601200007002000860f520044
:10247000878f5a0096003e0004600100210037005b
:1024800019003700920037009100370090003700a4
:102490008f0037008e0037008d0037008c0037002a
:1024a0008b0037003b003700890037008800370079
:1024b00087003700300037003a0037004a00370005
:1024c0006a0037004f003700810037008000370076
:1024d0007f0037007e0037007d0037007c0037002a
:1024e0001c0037000e003700b46e80000402e800c4
:1024f000b46e8800d2ff070000027800040f780055
:102500007a003700b46e80000402e800b46e8800e0
:10251000cbff070000027800040fea0073003700c9
:10252000b46e80000402e800b46e8800b46e8000cf
:10253000944278008582fb0005834200058a2000d2
:1025400085024300150f78000402e800b46e88008d
:1025500066003700b46e800004007800f2fb0700cc
:1025600000027800040f7800b46e8000630242001d
:10257000b46e88005d003700b46e80000402e8008d
:10258000b46e880092ff070000027800040f780004
:1025900056003700f7fb070000027800040f7800b0
:1025a00052003700b46e80000402e800b46e880068
:1025b000f0fb070000027800040f780054e02000d0
:1025c00014427800e04f5200020032000082eb001b
:1025d000470037001e007800ccf9070000027800a1
:1025e000040f780041003700b46e80000402e80058
:1025f000b46e880064ff070000027800040f7800c2
:102600003a003700b46e80000402e800b46e88001f
:10261000b46e800014427800fb4f52000f003a0065
:10262000b46e80000402e800b46e8800b46e8000ce
:1026300014427800fc4f520004003a00b46e80004f
:102640000402e800b46e88000400370014c1b3002f
:102650000443780055e02000864a780095fe070084
:1026600000027800040f780020003700b46e80006c
:102670000402e800b46e8800b46e80001442780052
:10268000fb4f52000f003a00b46e80000402e800d5
:10269000b46e8800b46e800014427800fc4f520083
:1026a00004003a00b46e80000402e800b46e8800b2
:1026b0000400370014c1b3000443780055e0200043
:1026c000864a780064768000040f7800070037009f
:1026d0000002eb00040f780044c1b300044378000b
:1026e00055e02000864a7800000000001e027800b5
:1026f000040078000080fa00000006000400fa00e0
:102700004fff070000027800040f7800b46e8000cd
:1027100014427800f44f520015003a00b46e800065
:102720000402e800b46e880045ff0700000278004c
:10273000140798001e029000e00f520005003a00b6
:1027400014c0b3008440780050e0200001487800b5
:10275000180037009e0278001e0290001100090048
:102760008402d80000027800040f7800e7ff3700e9
:10277000b46e800014427800f34f52000c003a000f
:10278000b46e80000402e800b46e88002cff0700dd
:1027900000027800140798009e0278001e02900044
:1027a00004aab90004027800040f7800d7ff3700ac
:1027b000000000001e027800040078000080fa008b
:1027c000000006000400fa00ccff070000027800b9
:1027d000040f780005003700c8ff070000027800ea
:1027e000140798001e0290001e0f4200b46e800075
:1027f00014427800f24f5200f7ff3200b46e8000ae
:1028000014427800f14f5200f3ff32001e027800ac
:10281000040078000080fa00000006000600fa00bc
:102820000002eb00040f7800b46e800014427800c0
:102830000482fb006123b90004ff2f00f5ff2f0085
:102840000602420087824a00d601200007002000cd
:10285000860f5200878f5a0044003e00046001003a
:102860004d00370041003700400037003f0037007f
:102870003e0037003d0037003c0037003b0037008a
:102880003a0037003900370038003700370037008a
:102890003600370035003700290037003300370095
:1028a0003200370031003700300037002f0037008a
:1028b0002e0037002d0037002c0037002b0037008a
:1028c0002a0037002900370028003700270037008a
:1028d0000100370030003700b46e80000402e800c9
:1028e000b46e8800b46e800094427800254798004a
:1028f0000402e800b46e880006003700b46e800061
:10290000944278000402e800b46e88000540780024
:10291000d70707002e4290000482fb000402ea0061
:102920004f22de0004427800ae4290008542e9006a
:1029300025479800e04f5200f0ff3a001900370099
:10294000b46e80000402e800b46e88009dff0700aa
:1029500000027800040f780054e020001442780050
:10296000e04f52000e0032001900370095ff0700bb
:10297000000278002407980054e0200014427800f8
:10298000e04f520011003a009e0078002e009000a7
:10299000aff9070003003700000000000100370016
:1029a00000000000b46e800014427800fd4f520019
:1029b00004003a00b46e80000402e800b46e88009f
:1029c00099ff3700caf80700010037000000000037
:1029d0000080fa00000006000600fa00b46e8000d5
:1029e000144278000482fb00b5022000850f5200db
:1029f00053003200c5022000850f52000300320050
:102a0000ff0f5200660032008e003700b46e800067
:102a10000402e800b46e8800b46e8000144f7800a1
:102a20000402e800b46e880006003700b46e80002f
:102a3000944278000402e800b46e880005407800f3
:102a40008b0707009e4278000582fb000402ea0023
:102a50004f22de00044278001e4fe900e04f520092
:102a6000f2ff3a00b46e800094427800b4c2b30022
:102a700084cf520011003a00b46e80000402e800d6
:102a8000b46e8800bdf907000002780014079800b2
:102a9000b46e8000944278008582fb00058342007a
:102aa000058a2000850243001e039000860a7800f4
:102ab0000402e800b46e880062003700b46e800043
:102ac00014427800ff4f52005d003a00b46e80005f
:102ad0000402e800b46e8800a6fa0700000278003d
:102ae0002407980054e0200014427800e04f520080
:102af00069003a00ae029000f4072000848f520073
:102b00000500340034c0b3000443780055e02000d1
:102b1000864a78006700370098f9070000027800bd
:102b2000140798002e02900084024200448d200079
:102b3000048242009e029000050a7800410037009e
:102b4000b46e80000402e800b46e8800b46e8000a9
:102b5000144278001444b000044078004407070091
:102b6000a0c3b3004207070084f907000002780001
:102b700014079800b46e8000944278008582fb00b0
:102b800005834200058a2000850243001e03900051
:102b9000860a78000402e800b46e88002900370035
:102ba000b46e80000402e800b46e880071fa070079
:102bb000000278002407980054e0200014427800b6
:102bc000e04f520036003a00ae029000f4072000b9
:102bd000848f52000500340034c0b30004437800f1
:102be00055e02000864a78003200370000c4b30068
:102bf0001f07070080c2b3001d0707008000eb001d
:102c00002e00900012f9070090c2b30018070700c9
:102c1000a0c3b3001607070058f9070000027800a8
:102c2000140798002e02900084024200448d200078
:102c3000048242009e029000050a780001003700dd
:102c400000000000b46e8000144278000482fb0093
:102c5000fd0f520006003200d5022000850f520001
:102c600011003200f00f5200110032000400370052
:102c7000b46e80000402e800b46e880057ff37008d
:102c800044c1b3008442780056e02000054b780030
:102c900000000000070037000000000005003700ba
:102ca00000000000030037000000000001003700b2
:102cb000000000000080fa00000006000600fa0094
:102cc000c0fe070000027800040f780054e02000e6
:102cd00014427800e04f52000200320000c2eb00c4
:102ce00052003700b46e8000944278002547980067
:102cf0000402e800b46e8800b2fe0700000278000b
:102d00002407980054e0200014427800e04f52005d
:102d10000200320000c2eb00440037002e42900057
:102d20000482fb006123b900b4fe2f00f5ff2f00e1
:102d30000602420087824a00560020000700200059
:102d4000860f5200878f5a0033003e000460010056
:102d50002a0037000c00370021003700020037003e
:102d600018003700100037002e0290001e026a0083
:102d700004f0a7000402ea000402e9004f22de008a
:102d800004427800290037002e0290001e026a00db
:102d900004f0a7000402ea000402ea004f22de0069
:102da000044278002100370014c0b300ae02900046
:102db0001e037800850f53001c0035000042eb0015
:102dc0001a00370014c0b300ae0290001e03780052
:102dd000850f5300150034000042eb00130037004c
:102de00014c0b300ae0290001e037800850f53009c
:102df0000e003c000042eb000c00370014c0b30092
:102e0000ae0290001e037800850f530007003d00be
:102e10000042eb0005003700f4c0b30084427800a4
:102e200056e02000054b780000c2eb00044078001b
:102e30000080fa00000006000400fa00b46e800072
:102e4000944278008582fb00050f78000402e800b8
:102e5000b46e8800b46e800014427800f84f5200bf
:102e60000b003a00b46e80000402e800b46e8800e3
:102e700054fe0700000278001407980054e0200078
:102e800014427800e04f5200060032001300370071
:102e900024c1b3000443780055e02000864a78003e
:102ea0000e0037001e027800f90f520007003c00a8
:102eb0001e02780084024200048a2000048242003c
:102ec0009e029000050a78000400370034c0b30069
:102ed0008442780056e02000054b78000080fa001c
:102ee000000006000400fa00a2f9070000027800c2
:102ef000040f780054e0200014427800e04f5200a4
:102f000024003a00b46e800014427800f84f52005a
:102f10000b003a00b46e80000402e800b46e880032
:102f200028fe0700000278001407980054e02000f3
:102f300014427800e04f52000600320016003700bd
:102f400024c1b3000443780055e02000864a78008d
:102f500011003700f40720009e027800848f520091
:102f600007003c001e02780084024200448d2000cd
:102f7000048242009e029000050a78000600370095
:102f800034c0b3008442780056e02000054b78003e
:102f900001003700000000000080fa000000060079
:102fa0000000fa00b46e8000144278000482fb0036
:102fb000ff0f520008003200b5022000850f5200ba
:102fc0000a003a00b46e80000402e800b46e880083
:102fd00099ff07000a003700b46e80000402e80081
:102fe000b46e8800bfff070005003700e4c0b300df
:102ff0000443780055e02000864a78000000000075
:103000000080fa00000006000400fa00edfd070051
:10301000000278001407980054e020001442780061
:10302000e04f52001d003a00b46e80001442780058
:10303000ee4f520006003a00b46e80000402e80031
:10304000b46e88000042eb00044f78000f00370098
:10305000b46e800014427800ef4f520006003a0030
:10306000b46e80000402e800b46e880014c0b3009f
:10307000044f78000500370044c1b30004437800d2
:1030800055e02000864a7800050037009e40780011
:103090001e009000750307000100370000000000cb
:1030a0000080fa00000006000200fa00b46e800002
:1030b00094427800a4c2b30084cf520009003a00c1
:1030c000b46e80000400780017f907000002780051
:1030d000040f7800b46e800063024200b46e880072
:1030e000020037000002eb00040f7800449d20002e
:1030f000a46e880006003700a56e8000a46e8000d4
:10310000144278000482fb0004824200a46e88000e
:10311000a46e800014427800e04f5200200032007c
:10312000a46e800004007800fff807000002780019
:103130009e0f5200f0ff35001a003700a46e800089
:1031400004007800f8f80700000278008000eb0027
:1031500004007800bef7070000c2b300c4050700f2
:10316000a46e80006302420004007800fbfa0700ae
:1031700054e0200014427800e04f52000e003a0064
:10318000dbf60700a56e8000a46e80001442780074
:103190000482fb0004824200a46e88000100370014
:1031a00000000000a46e800014427800e04f52003e
:1031b000e2ff3a0001003700000000000080fa0042
:1031c000000006000200fa000042eb00044f780005
:1031d000080037009e4278000582fb00840242000e
:1031e000048a2000048242008002eb00050a780075
:1031f0001e4fe8001e427800f94f5200f5ff3600de
:103200000042eb008442780046de2000054b780047
:103210000042eb008442780046e02000054b780035
:103220000042eb0084427800469d2000054b780068
:10323000449d2000a46e88000080fa000000060073
:103240000c00fa00bf05070000427800e04f520072
:1032500015003200c105070000427800fb4f520004
:1032600011003a0006003700a56e8000a46e8000b1
:10327000144278000482fb0004824200a46e88009d
:10328000a46e800014427800e04f5200f6ff3a002e
:1032900064c1b3000443780055e02000864a7800fa
:1032a000a46e8000d3013700b46e80001442780011
:1032b0000482fb00cfa2de00b6022000070020003f
:1032c000860f5200878f5a00b0013e000460010053
:1032d0005a0137002a0037004400370071003700d8
:1032e0007f003700a9013700a8013700cf00370061
:1032f00086013700800137008e01370067013700f3
:103300008701370075013700a00137009f013700a2
:103310009e0137009d0137009c0137009b0137005b
:103320009a0137009901370098013700970137005b
:10333000960137009501370094013700930137005b
:103340009201370091013700900137008301370067
:103350008e0137008d0137008c0137008b0137005b
:103360008301370082013700810137008001370077
:10337000860137007e013700840137007201370073
:10338000b46e80000402e800b46e88000dfd0700f2
:1033900000027800140798001e0090009df80700b6
:1033a00000027800a46e8800a46e800004007800fb
:1033b0005df80700000278009e029000850f520021
:1033c0000600320004c1b3000443780055e0200039
:1033d000864a78000002eb0086013700a46e800068
:1033e00063024200b46e880081013700b46e800031
:1033f0000402e800b46e8800f2fc070000027800c6
:103400001407980054e0200014427800e04f520066
:10341000020032000002eb00760137001e0090002f
:103420007cf8070000027800240798002e00900026
:103430003df80700000278009e029000850f5200c0
:103440000600320004c1b3000443780055e02000b8
:10345000864a78000002eb0066013700a46e800007
:1034600004007800caf70700b46e800004007800fa
:10347000c7f7070054e0200014427800e04f5200e4
:10348000020032000002eb005a0137002e029000c9
:10349000a46e8800a46e800063024200b46e8800af
:1034a00053013700d2f7070000027800b46e88009d
:1034b000cff70700000278002407980054e02000ae
:1034c00014427800e04f5200020032000002eb008c
:1034d00048013700ae029000a56e88002b0137002e
:1034e000b46e80000402e800b46e8800b56e8000ff
:1034f00015437800b4c2b30004426b000482fb00a1
:103500000402ea004f22de00044278008502e8004f
:10351000b56e8800e04f520006003200c4c0b30010
:103520008442780056e02000054b78000002eb0052
:1035300030013700b46e8000144278000482fb0032
:10354000340798003cfe070054e020001442780045
:10355000e04f5200020032000002eb00250137006c
:10356000b46e800014427800e54f52000b003a0020
:10357000b46e80000402e800b46e880091fc07007d
:103580000002780044079800b46e8000144278006e
:10359000e64f5200070032000d003700d4c0b300e0
:1035a0008442780056e02000054b78000002eb00d2
:1035b00010013700b46e80000402e800b46e880089
:1035c00080fc070000027800040f7800020037003a
:1035d00014002000040f7800a46e8000040078001e
:1035e0009ef70700b46e8000040078009bf7070088
:1035f0004e0290000400780098f707001e02780041
:103600000400780095f707003e029000040078005f
:1036100092f7070054e0200014427800e04f520077
:10362000d90032000002eb00f2003700b46e8000d7
:103630000402e800b46e8800b56e8000154378007f
:10364000b4c2b30004426b000482fb000402ea002f
:103650004f22de00044278008502e800b56e880043
:10366000e04f520006003200a4c0b300844278004c
:1036700056e02000054b78000002eb00dd0037002b
:1036800044e0200014427800e44f520006003e005f
:1036900094c0b3008442780056e02000054b7800c7
:1036a0000002eb00d300370044e020001442780011
:1036b0000482fb000402e9008402420064de200070
:1036c000048242001402780034079800b46e80002f
:1036d000144278008482fb003e029000848f5200e6
:1036e00006003200b4c0b3008442780056e02000e7
:1036f000054b78000002eb00be003700b46e80007e
:103700000402e800b46e880044e02000144278000f
:103710000482fb000482e9008402420064de20008f
:103720000482420014027800040f78003e029000e8
:1037300084024200048a20000482420014027800bd
:103740009e0242003e02900004034200048a2000d0
:1037500004024300050a780044e020001442780087
:103760000482fb00630252008402420064de2000f7
:103770000482420014027800440798001e02780078
:10378000e00f520008003d003e029000840242001b
:10379000048a200004824200940278004e029000c5
:1037a000848f52000b0035001e027800e00f52009b
:1037b0000f0034003e02900084024200048a200080
:1037c00004824200940278004e029000848f5200de
:1037d0000700340044e020001442780065425200a3
:1037e0008442780046e02000054b780067003700ef
:1037f00044e02000144278000482fb00640252007e
:103800008402420064de2000048242001402780038
:10381000b46e880044e02000144278000482fb006b
:10382000650252008402420064de200004824200ed
:1038300014027800a46e88006d003700b46e80001a
:103840000402e800b46e88001cfd07000042780006
:10385000244f980054e0200014427800e04f5200ba
:1038600006003200f4c0b3008442780056e0200025
:10387000054b78000002eb005e0037002e4a9000f6
:10388000e04f52000700320059003700b46e80004c
:103890000402e800b46e8800030037000000000056
:1038a0000100370000000000b46e800094427800f0
:1038b000d4c2b30084cf5200f4ff3a003300370083
:1038c000a56e8000a46e8000144278000482fb0084
:1038d00004824200a46e880001003700000000004e
:1038e000a46e800014427800e04f5200f4ff3a00ca
:1038f000a46e80003f003700b46e80000402e80030
:10390000b46e880034fc070020003700b46e8000dd
:103910000402e800b46e8800c0fb07001b003700fb
:10392000b46e80000402e800b46e88009cfd0700bd
:1039300016003700b46e80000402e800b46e880000
:10394000b1fd070011003700b46e80000402e800ea
:10395000b46e880038fd07000c003700b46e80009c
:103960000402e800b46e88005efd0700070037001f
:1039700034c1b3008442780056e02000054b780043
:103980000002eb001b00370000000000b46e800056
:10399000144278000482fb00f00f52000400320051
:1039a000d5022000850f5200050032000a003700c2
:1039b000b46e80000402e800b46e88000c0037008a
:1039c000a56e8000a46e8000144278000482fb0083
:1039d000048242000700370044c1b30084427800eb
:1039e00056e02000054b78000002eb000100370094
:1039f00014fe3700040078000080fa000000060082
:103a00000200fa000042eb000443780045de20008b
:103a1000864a78000042eb000443780045e020002d
:103a2000864a7800449d2000a46e88000c00370070
:103a3000a46e800063024200b46e880000fe07009e
:103a400000027800040f780054e02000144278004f
:103a5000e04f520007003a001e027800a46e880072
:103a6000a46e800014427800e04f5200f0ff3a004c
:103a700001003700000000000080fa00000006008e
:103a80000000fa0004852000b46e8800b46e800047
:103a9000144278000482fb006123b900c4fd2f00aa
:103aa000f5ff2f000602420087824a0056002000e0
:103ab00007002000860f5200878f5a0061003e00e9
:103ac00004600100050037002800370018003700a7
:103ad0002b0037005b0037004a003700b46e8000cf
:103ae0000402e800b46e8800b46e8000944278004e
:103af000d4c2b30084cf520006003200b46e8000fe
:103b00006302420094427800d4c2b30084cf5200d2
:103b100002003a0064fd07004c00370034c1b300d6
:103b20000443780055e02000864a780047003700bb
:103b3000b46e80000402e800b46e8800b46e8000a9
:103b400094427800d4c2b30084cf520002003a00fd
:103b50009cfd07003d00370034c1b30004437800ea
:103b600055e02000864a780038003700b46e8000a7
:103b70000402e800b46e8800a1ff0700330037009c
:103b8000b46e80000402e800b46e8800b46e800059
:103b90009442780084c2b30084cf520008003a00f7
:103ba000b46e80000402e800b46e880084c2b300e2
:103bb0000443780035dd2000864a78000400370091
:103bc0000042eb000443780035dd2000864a78008f
:103bd000b46e800094427800d4c2b30084cf520007
:103be00003003a00409d20008003070017003700c3
:103bf00034c1b3000443780055e02000864a7800c1
:103c000012003700b46e80000402e800b46e880031
:103c1000b46e800094427800d4c2b30084cf5200c6
:103c200003003a00409d2000920307000700370080
:103c300034c1b3000443780055e02000864a780080
:103c4000020037007efd07000000000054e0200065
:103c500014427800e04f52002600320054e0200069
:103c600014427800f64f520022003200b56e8000f8
:103c7000449d2000848f520019003900b56e8000e9
:103c800034dd2000848f520015003100a46e8000c6
:103c900014427800e04f52001100320014f4070083
:103ca0006062280084f40700a46e8000040078009d
:103cb0001df60700000278008000eb000400780089
:103cc000e3f4070000c2b300e9020700a46e80001d
:103cd000630242000400780020f807000500370066
:103ce00003f407000063280073f407000085200038
:103cf0001af807000080fa00000006000000fa0031
:103d0000fbf3070054e02000144278000482fb001b
:103d100084024200a4e520000482420014027800dc
:103d20000400780064f40700f1f307000042eb00a0
:103d30000443780055e02000864a78000080fa00ad
:103d4000000006000200fa001efd0700b063280014
:103d500059f40700e6f307000065280056f4070051
:103d60007065280054f40700e1f307004d030700d5
:103d70000042780085c2b300854f520006003a0029
:103d8000006628004cf40700d9f30700409d20008e
:103d9000380307001aff0700d8ff070001003700ab
:103da00000000000e0c3b300b102070050f40700b8
:103db00031f6070000427800044f780054e02000fc
:103dc00014427800e04f520008003200c8f30700a8
:103dd000d066280038f407000080200036f4070081
:103de000c6ff070000000000eeff37000585200039
:103df00095427800a4c2b30084cf52000a003a0072
:103e00009e42780004852000054a7800bff807002c
:103e100054e0200014427800e04f5200e0ff3200ee
:103e2000b6ff0700dfff370015ff0700b3ff0700ed
:043e3000dcff37007c
:020000040000fa
:103e34000000fa0045168000f4ff280004826200a6
:103e4400441688006519800004c021000502720030
:103e540064198800cd82a800cda2a800cdc2a80014
:103e64000080fa00000006000400fa00000f780049
:103e7400214798001e027800e10f52000f00320023
:103e8400e20f520018003200e00f520021003a0005
:103e94002e429000614262000482fb0061026200d3
:103ea4004c22dd0066168000f5ff2e0085026300bb
:103eb4000502720064168800350037002e42900017
:103ec400614262000482fb00610262004d22dd0057
:103ed40066168000f5ff2d0085026300050272005e
:103ee400641688002a0037002e4290006142620066
:103ef4000482fb00610262004e22dd00661680002f
:103f0400f5ff2b0085026300050272006416880029
:103f14001f0037002e429000614262000482fb00c1
:103f2400610262004c22dd0066168000f5ff2e005f
:103f34008502630005027200641688002e42900018
:103f4400614262000482fb00610262004d22dd00d6
:103f540066168000f5ff2d008502630005027200dd
:103f6400641688002e429000614262000482fb00c5
:103f7400610262004e22dd0066168000f5ff2b0010
:103f840085026300050272006416880000000000c8
:083f94000080fa0000000600a5
:020000040000fa
:103f9c000400fa00000f7800110798000002eb00f3
:103fac00243a8800130207000431800004007800d2
:103fbc00f1f107009cff07008df107005eff070081
:103fcc000002eb00040078000080fa0000000600fc
:020000040000fa
:1040000000000000000000000000000000000000b0
:1040100000000000000000000000000000000000a0
:104020000000000000000000000000000000000090
:104030000000000000000000000000000000000080
:020000040000fa
:104800000000fa00c942a900c962a800553680001c
:1048100004fe2f00048262005400b3005436880066
:104820003535800004fe2f0004826200b400b3001e
:104830003435880074062000c411880004802800e4
:1048400084118800044020009411880094058000a1
:104850000480a1000490a10004a0a0009405880099
:1048600087c0a90097c0a8000080fa0000000600d9
:104870000200fa00004f780000000000951180004f
:104880000420200004826200e00f5200fbff3a0087
:104890001e02fb00a41188000080fa000000060040
:1048a000849fbe00861f78000200fa0087c0a9001e
:1048b000b4118000044f7800a5ec200095427800e8
:1048c00004c4b30084cf52001900320084ec2000ed
:1048d000144278008482fb0084e8200004824200b5
:1048e0001e4a780084ec2000144278000442e8005c
:1048f0000443780085ec2000864a780084ec200090
:1049000014427800f443b2000443780085ec2000a0
:10491000864a7800a4ec2000144278000442e800a3
:1049200004437800a5ec2000864a78000100370097
:10493000000000000080fa004f0378004f02be0024
:10494000004006000000fa00a4ec200014427800a9
:10495000044078000080fa00000006000200fa001f
:1049600000000000f7ff070000427800e04f52000f
:10497000fcff320097c0a90094ec2000144278009c
:104980008482fb0084e8200004824200144f7800f7
:1049900094ec2000144278000442e80004437800bc
:1049a00095ec2000864a780094ec200014427800b0
:1049b000f443b2000443780095ec2000864a780066
:1049c000a4ec2000144278000442e900044378007b
:1049d000a5ec2000864a780097c0a8001e42780007
:0c49e000044078000080fa00000006008f
:020000040000fa
:1049ec000800fa003007980004002200050020009f
:1049fc001407980025079800220424001e0090003c
:104a0c00ae00900014ef07000002eb00040f7800da
:104a1c000f003700be0290001e0278000480420096
:104a2c001e0278006123b9001e029000ae029000b5
:104a3c000602420087824a0003042000000178002d
:104a4c000400be0012ef0700040820001e0f4200f5
:104a5c00f43f20009e027800848f5200edff34005a
:104a6c000080fa00000006000600fa0020079800fb
:104a7c000400220005002000048fbe000002eb00a1
:104a8c00034020002e0190001e00be001fef070007
:104a9c000080fa00000006000600fa000400220064
:104aac0005002000048fbe00f43f2000050020000c
:104abc003e034200ae834a00e40247000002eb00d2
:104acc0013002000050178000600be000fef070060
:104adc004e429000044078000080fa00000006006e
:020000040000fa
:104aec00880e00004400000000000000cc0e000006
:104afc000200000000000000000800000606000094
:104b0c0000000000060e0000820000000200000001
:104b1c0004840700840c840012841900841d840012
:104b2c0020842500842a840030843600843a840052
:104b3c003e844200844784004a844e0084508400a2
:104b4c00528454008456840058845b00845e840034
:104b5c00608462008465840067846900846b8400cf
:104b6c006d846f008471840075847900847c84006a
:104b7c0081848600848a84008e84930084988400c7
:104b8c009d84a00084b18400ba84d10084e38400a5
:104b9c00ed840300851a85002e853f008554850021
:104bac0066857b00858a85009f85b40085ca850053
:104bbc00de85eb0085fb850008861700860000006b
:104bcc00d20e00000200000000000000ce0e00001b
:0c4bdc00040000000000000000000000c9
:020000040000fa
:020000040001f9
:0457f800af79000085
:020000040000fa
:020000040001f9
:0457fc007f3f0000eb
:00000001FF
